:0400000022EF0BF0F0
:100F000000F016BA16AA1664102C11E41662124AE2
:100F10001742173A1732172A1722171A17D816E04E
:100F2000120065EC0BF0300E286E310E296E320E79
:100F30002A6E000E3C6E000E3D6E300E3E6E400E70
:100F40003F6E500E406E1A0E136E5E0E126E6E0ED7
:100F5000E82EFED7122EFCD7132EFAD700D0500E53
:100F6000EAEC08F0E806D8B4B8EF07F0BAEF07F0FB
:100F7000AFEF07F03C0E016E026A000E046E050E24
:100F8000036EF0EC0AF0000E0CEC0AF0C6EC0AF06E
:100F9000E806D8B4CEEF07F0D0EF07F0C6EF07F0C1
:100FA000210E126E760EE82EFED7122EFCD700D040
:100FB000500EEAEC08F0E806D8B4E1EF07F0E3EFF2
:100FC00007F0D8EF07F03C0E016E026A000E046EC7
:100FD000020E036EF0EC0AF0000E0CEC0AF0140E98
:100FE000016E026A000E046E030E036EF0EC0AF04E
:100FF000010E0CEC0AF0C6EC0AF0E806D8B403EFD8
:1010000008F005EF08F0FBEF07F0210E126E760EE8
:10101000E82EFED7122EFCD700D0280EEAEC08F0FE
:10102000E806D8B416EF08F018EF08F00DEF08F056
:10103000140E016E026A000E046E030E036EF0ECD5
:101040000AF0000E0CEC0AF0C6EC0AF0E806D8B480
:101050002CEF08F02EEF08F024EF08F0A3EF07F0D4
:1010600000EF00F03AEC0BF00009D8B43AEF08F0CA
:101070003CEF08F079EF08F04AEF08F0A5EC0BF030
:1010800095EF08F0A1EC0BF095EF08F099EC0BF060
:1010900095EF08F072C00AF073C00BF020EE66F016
:1010A00002D85DEF08F00500FA6EDE50FD6EDE50EE
:1010B000FE6EF850FF6EFA5012000D6E0E6A0E5062
:1010C000000AD8B466EF08F046EF08F00D50010AA8
:1010D000D8B446EF08F0030AD8B43EEF08F0010A8E
:1010E000D8B442EF08F0070AD8B446EF08F046EF4C
:1010F00008F0000183917DC0D9FF7EC0DAFF7D4BEF
:101100007E2BDF50A9EC0BF000017F07D8A08007F1
:101110007F518011D8A48FEF08F091EF08F094EF81
:1011200008F0060E95EF08F0030E1200B5EC0BF078
:101130007DC0D9FF7EC0DAFFDF6E00017D4B7E2BC4
:101140007F07D8A080077F518011D8B4AAEF08F09C
:10115000ACEF08F0B1EF08F0ADEC0BF0050EE9EFE5
:1011600008F08387BCEF08F08DEC0BF0E9EF08F096
:1011700091EC0BF0E9EF08F06CC00AF06DC00BF0D9
:1011800002D8CDEF08F00500FA6E6051FD6E615196
:10119000FE6EF850FF6EFA5012000D6E0E6A0E5081
:1011A000000AD8B4D6EF08F0B8EF08F00D50010AE5
:1011B000D8B4B8EF08F0030AD8B4B4EF08F0010AC5
:1011C000D8B4B4EF08F0070AD8B4B8EF08F0B8EF15
:1011D00008F01200016E010E026E000183B5F3EFFC
:1011E00008F0F5EF08F02FEF09F001C07CF08393D1
:1011F000838583910E0E816F010E7B6FF40E7A6FE3
:101200008387760E606F170E616F000E6C6F000E95
:101210006D6F760E626F170E636F000E6E6F000EAD
:101220006F6F760E646F170E656F000E706F000E95
:10123000716F760E666F170E676F000E726F000E7D
:10124000736F720E686F170E696F000E746F000E69
:10125000756FC7EC0BF002EC0BF0000E026E025043
:1012600012000001838742EF09F09DEC0BF06FEF55
:1012700009F0B3EC0BF0030E6FEF09F099EC0BF0F3
:101280006FEF09F06CC00AF06DC00BF002D853EF9D
:1012900009F00500FA6E6051FD6E6151FE6EF85066
:1012A000FF6EFA5012000D6E0E6A0E50000AD8B48E
:1012B0005CEF09F03EEF09F00D50010AD8B43EEFA3
:1012C00009F0030AD8B435EF09F0010AD8B435EFB4
:1012D00009F0070AD8B439EF09F03EEF09F012001F
:1012E00000018391020E826F7EEF09F09DEC0BF0FE
:1012F000A5EF09F099EC0BF0A5EF09F070C00AF02A
:1013000071C00BF020EE64F002D891EF09F00500F7
:10131000FA6EDE50FD6EDE50FE6EF850FF6EFA5033
:1013200012000D6E0E6A0E50000AD8B49AEF09F042
:101330007AEF09F00D50020AD8B476EF09F0010AED
:10134000D8B476EF09F07AEF09F01200C7EC0BF091
:10135000000183A1AEEF09F0B0EF09F0BDEF09F095
:101360003AEC0BF00009D8B4B8EF09F0BAEF09F085
:10137000BDEF09F00F0E0001816F00018151020DD8
:10138000F350010F0F6E0FC0F6FF0F0EF76E02D86D
:10139000D6EF09F00500FA6E0900F550FD6E090060
:1013A000F550FE6EF850FF6EFA5012000001816F8A
:1013B0001200056E01500210D8B4E1EF09F0E3EF1E
:1013C00009F0F9EF09F00550020DF350600FD96EE6
:1013D000DA6A01C0DEFF02C0DDFF0550020DF350E6
:1013E0006C0FD96EDA6A03C0DEFF04C0DDFF0BEFBD
:1013F0000AF00550020DF350600FD96EDA6A760ECE
:10140000DE6E170EDD6E0550020DF3506C0FD96EB7
:10141000DA6ADE6ADD6A1200106E010E116E0001DA
:1014200083B315EF0AF017EF0AF02CEF0AF083836D
:10143000000E116E1050D8B420EF0AF022EF0AF01F
:1014400026EF0AF0010E816F28EF0AF0020E816F7D
:10145000C1EC0BF013EC0BF01150120020EE02F077
:101460000A50D9260B50DA22DF500C6E0CC001F066
:10147000026A0AC0D9FF0BC0DAFFDECF03F0DDCF6E
:1014800004F0F0EC0AF0000E066E000E076E000E7F
:10149000086E000E096E2EEC0BF0020E1200080E04
:1014A000A76E900EAB6E240EAC6E080EAF6E020EE1
:1014B0007D6E000E016E000E026E83EC0BF0000ECE
:1014C000016E000E026E7EEC0BF0000E016E000E3F
:1014D000026E88EC0BF0000E566E12000AC001F08E
:1014E0000BC002F0000E046E010E036EF0EC0AF069
:1014F000000E066E000E076E000E086E000E096EDE
:101500002EEC0BF0040E12000AC001F00BC002F02A
:10151000000E046E020E036EF0EC0AF0000E066E72
:10152000000E076E000E086E000E096E2EEC0BF01A
:10153000020E12000AC001F00BC002F0000E046E91
:10154000010E036EF0EC0AF0000E066E000E076E40
:10155000000E086E000E096E2EEC0BF0020E12004B
:101560000AC001F00BC002F0000E046E020E036E02
:10157000F0EC0AF0000E066E000E076E000E086E0C
:10158000000E096E2EEC0BF0040E1200010E016E1F
:10159000000183B3CEEF0AF0D0EF0AF0DAEF0AF0E1
:1015A00083957C69C7EC0BF0C3EC0BF0C5EC0BF03A
:1015B00082C001F001501200000E896E000E8A6E8A
:1015C000000E8B6ECF0E926E9368BF0E946E1F0E40
:1015D0000F015D6F070E5C6F000E5B6FF18E1200E6
:1015E000000183A7F6EF0AF0F8EF0AF001EF0BF025
:1015F00001C07DF002C07EF003C07FF004C080F027
:1016000083971200C6BA07EF0BF009EF0BF012EF49
:101610000BF0000EC76E080EC66E000EC56EC70E2C
:10162000C86EC68A120019EF0BF04DEC0BF0A6EC59
:1016300009F0000183B31FEF0BF021EF0BF015EF62
:101640000BF0120000EE60F0240EEE6AE806FDE1F9
:10165000566A000EF86E000191EF07F006C001F027
:1016600007C002F008C003F009C004F0000ED9EC76
:1016700009F01200C5BC3FEF0BF042EF0BF0010E7A
:1016800043EF0BF0000E1200600ED36E000ED26E10
:10169000000E9B6E000E9A6E12009EA652EF0BF08B
:1016A00054EF0BF04DEF0BF01200000183817C51E1
:1016B0007C25A9EC0BF0030E120000018381D88079
:1016C0007C35A9EC0BF0050E1200DCEC0AF044ECC2
:1016D0000BF04FEC0AF0120000018393000E826FB2
:1016E0000E0E120000018391B7EC0BF0040E1200F5
:1016F00000018393000E826F0E0E120001C052F0A3
:1017000002C053F0120001C054F002C055F01200A4
:1017100001C050F002C051F01200B0EC0BF0090E05
:101720001200B0EC0BF00A0E1200ADEC0BF0050E3F
:101730001200BDEC0BF0000E1200BFEC0BF0010E1E
:101740001200BFEC0BF0020E1200BFEC0BF0010E0A
:101750001200016E01C0C9FF1200C59AC5881200AF
:10176000C58AC58812009E861200C9501200C5861F
:101770001200050E1200010E1200C5841200C5826F
:101780001200C58012009D961200C69A12009E9605
:02179000120045
:020000040020DA
:08000000FFFFFFFFFFFFFFFF00
:020000040030CA
:0E00000015027F50FF8991FF0FC00FE00F40E7
:00000001FF
